S0200000433A2F6D6963726F2F66696E616C2F71312F7131636F64652E73726563C8
S113000034008400041480103480C0000400C0183C
S1130010340004010400042134004401040048298C
S113002034008001C40380313400C0018400C0392D
S1130030840100028402400204028002C4FFFFDE45
S1130040050000D8C4FFFFDE050040DA3502802930
S11300503AD40C30350380293501002A3700C01208
S11300602601C03A1EFDFF3AB409C0050468C9BDA3
S1130070C4FFFFBD1EFE3FB8260000B8350440296A
S11300803704002B3704402B3A941A683AB058636B
S11300903A289D623A389F723AC8E163040C00849E
S11300A0C4FFFFDE050000DC070040DC26030088F7
S11300B0050040244400C0DE06FB3F003A2800F857
S9030000FC
